{
  "contractName": "Flashswaptest",
  "abi": [
    {
      "inputs": [],
      "stateMutability": "nonpayable",
      "type": "constructor"
    },
    {
      "inputs": [],
      "name": "owner",
      "outputs": [
        {
          "internalType": "address",
          "name": "",
          "type": "address"
        }
      ],
      "stateMutability": "view",
      "type": "function"
    },
    {
      "stateMutability": "payable",
      "type": "receive"
    },
    {
      "inputs": [
        {
          "internalType": "uint256",
          "name": "_maxBlockNumber",
          "type": "uint256"
        },
        {
          "internalType": "address",
          "name": "_tokenPay",
          "type": "address"
        },
        {
          "internalType": "address",
          "name": "_tokenSwap",
          "type": "address"
        },
        {
          "internalType": "uint256",
          "name": "_amountTokenPay",
          "type": "uint256"
        },
        {
          "internalType": "address",
          "name": "_sourceRouter",
          "type": "address"
        },
        {
          "internalType": "address",
          "name": "_targetRouter",
          "type": "address"
        },
        {
          "internalType": "address",
          "name": "_sourceFactory",
          "type": "address"
        }
      ],
      "name": "start",
      "outputs": [],
      "stateMutability": "nonpayable",
      "type": "function"
    },
    {
      "inputs": [
        {
          "internalType": "address",
          "name": "_tokenPay",
          "type": "address"
        },
        {
          "internalType": "address",
          "name": "_tokenSwap",
          "type": "address"
        },
        {
          "internalType": "uint256",
          "name": "_amountTokenPay",
          "type": "uint256"
        },
        {
          "internalType": "address",
          "name": "_sourceRouter",
          "type": "address"
        },
        {
          "internalType": "address",
          "name": "_targetRouter",
          "type": "address"
        }
      ],
      "name": "check",
      "outputs": [
        {
          "internalType": "int256",
          "name": "",
          "type": "int256"
        },
        {
          "internalType": "uint256",
          "name": "",
          "type": "uint256"
        }
      ],
      "stateMutability": "view",
      "type": "function"
    },
    {
      "inputs": [
        {
          "internalType": "address",
          "name": "_sender",
          "type": "address"
        },
        {
          "internalType": "uint256",
          "name": "_amount0",
          "type": "uint256"
        },
        {
          "internalType": "uint256",
          "name": "_amount1",
          "type": "uint256"
        },
        {
          "internalType": "bytes",
          "name": "_data",
          "type": "bytes"
        }
      ],
      "name": "pancakeCall",
      "outputs": [],
      "stateMutability": "nonpayable",
      "type": "function"
    },
    {
      "inputs": [
        {
          "internalType": "address",
          "name": "_sender",
          "type": "address"
        },
        {
          "internalType": "uint256",
          "name": "_amount0",
          "type": "uint256"
        },
        {
          "internalType": "uint256",
          "name": "_amount1",
          "type": "uint256"
        },
        {
          "internalType": "bytes",
          "name": "_data",
          "type": "bytes"
        }
      ],
      "name": "waultSwapCall",
      "outputs": [],
      "stateMutability": "nonpayable",
      "type": "function"
    },
    {
      "inputs": [
        {
          "internalType": "address",
          "name": "_sender",
          "type": "address"
        },
        {
          "internalType": "uint256",
          "name": "_amount0",
          "type": "uint256"
        },
        {
          "internalType": "uint256",
          "name": "_amount1",
          "type": "uint256"
        },
        {
          "internalType": "bytes",
          "name": "_data",
          "type": "bytes"
        }
      ],
      "name": "uniswapV2Call",
      "outputs": [],
      "stateMutability": "nonpayable",
      "type": "function"
    },
    {
      "inputs": [
        {
          "internalType": "address",
          "name": "_sender",
          "type": "address"
        },
        {
          "internalType": "uint256",
          "name": "_amount0",
          "type": "uint256"
        },
        {
          "internalType": "uint256",
          "name": "_amount1",
          "type": "uint256"
        },
        {
          "internalType": "bytes",
          "name": "_data",
          "type": "bytes"
        }
      ],
      "name": "swapV2Call",
      "outputs": [],
      "stateMutability": "nonpayable",
      "type": "function"
    },
    {
      "inputs": [
        {
          "internalType": "address",
          "name": "_sender",
          "type": "address"
        },
        {
          "internalType": "uint256",
          "name": "_amount0",
          "type": "uint256"
        },
        {
          "internalType": "uint256",
          "name": "_amount1",
          "type": "uint256"
        },
        {
          "internalType": "bytes",
          "name": "_data",
          "type": "bytes"
        }
      ],
      "name": "pantherCall",
      "outputs": [],
      "stateMutability": "nonpayable",
      "type": "function"
    },
    {
      "inputs": [
        {
          "internalType": "address",
          "name": "_sender",
          "type": "address"
        },
        {
          "internalType": "uint256",
          "name": "_amount0",
          "type": "uint256"
        },
        {
          "internalType": "uint256",
          "name": "_amount1",
          "type": "uint256"
        },
        {
          "internalType": "bytes",
          "name": "_data",
          "type": "bytes"
        }
      ],
      "name": "jetswapCall",
      "outputs": [],
      "stateMutability": "nonpayable",
      "type": "function"
    },
    {
      "inputs": [
        {
          "internalType": "address",
          "name": "_sender",
          "type": "address"
        },
        {
          "internalType": "uint256",
          "name": "_amount0",
          "type": "uint256"
        },
        {
          "internalType": "uint256",
          "name": "_amount1",
          "type": "uint256"
        },
        {
          "internalType": "bytes",
          "name": "_data",
          "type": "bytes"
        }
      ],
      "name": "cafeCall",
      "outputs": [],
      "stateMutability": "nonpayable",
      "type": "function"
    },
    {
      "inputs": [
        {
          "internalType": "address",
          "name": "_sender",
          "type": "address"
        },
        {
          "internalType": "uint256",
          "name": "_amount0",
          "type": "uint256"
        },
        {
          "internalType": "uint256",
          "name": "_amount1",
          "type": "uint256"
        },
        {
          "internalType": "bytes",
          "name": "_data",
          "type": "bytes"
        }
      ],
      "name": "BiswapCall",
      "outputs": [],
      "stateMutability": "nonpayable",
      "type": "function"
    },
    {
      "inputs": [
        {
          "internalType": "address",
          "name": "_sender",
          "type": "address"
        },
        {
          "internalType": "uint256",
          "name": "_amount0",
          "type": "uint256"
        },
        {
          "internalType": "uint256",
          "name": "_amount1",
          "type": "uint256"
        },
        {
          "internalType": "bytes",
          "name": "_data",
          "type": "bytes"
        }
      ],
      "name": "wardenCall",
      "outputs": [],
      "stateMutability": "nonpayable",
      "type": "function"
    }
  ],
  "bytecode": "0x608060405234801561001057600080fd5b50336000806101000a81548173ffffffffffffffffffffffffffffffffffffffff021916908373ffffffffffffffffffffffffffffffffffffffff160217905550611e9a806100606000396000f3fe6080604052600436106100ab5760003560e01c80635b3bc4fe116100645780635b3bc4fe1461053e57806384800812146105f85780638da5cb5b146106b2578063b2ff9f26146106f3578063c08757bc146107ad578063ec78ce5014610883576100b2565b806304ceaae2146100b757806310d1e85c1461019c5780631c8f37b3146102565780633fc016851461031057806346337f3a146103ca578063485f399414610484576100b2565b366100b257005b600080fd5b3480156100c357600080fd5b5061019a600480360360e08110156100da57600080fd5b8101908080359060200190929190803573ffffffffffffffffffffffffffffffffffffffff169060200190929190803573ffffffffffffffffffffffffffffffffffffffff16906020019092919080359060200190929190803573ffffffffffffffffffffffffffffffffffffffff169060200190929190803573ffffffffffffffffffffffffffffffffffffffff169060200190929190803573ffffffffffffffffffffffffffffffffffffffff16906020019092919050505061093d565b005b3480156101a857600080fd5b50610254600480360360808110156101bf57600080fd5b81019080803573ffffffffffffffffffffffffffffffffffffffff16906020019092919080359060200190929190803590602001909291908035906020019064010000000081111561021057600080fd5b82018360208201111561022257600080fd5b8035906020019184600183028401116401000000008311171561024457600080fd5b9091929391929390505050610ee9565b005b34801561026257600080fd5b5061030e6004803603608081101561027957600080fd5b81019080803573ffffffffffffffffffffffffffffffffffffffff1690602001909291908035906020019092919080359060200190929190803590602001906401000000008111156102ca57600080fd5b8201836020820111156102dc57600080fd5b803590602001918460018302840111640100000000831117156102fe57600080fd5b9091929391929390505050610efd565b005b34801561031c57600080fd5b506103c86004803603608081101561033357600080fd5b81019080803573ffffffffffffffffffffffffffffffffffffffff16906020019092919080359060200190929190803590602001909291908035906020019064010000000081111561038457600080fd5b82018360208201111561039657600080fd5b803590602001918460018302840111640100000000831117156103b857600080fd5b9091929391929390505050610f11565b005b3480156103d657600080fd5b50610482600480360360808110156103ed57600080fd5b81019080803573ffffffffffffffffffffffffffffffffffffffff16906020019092919080359060200190929190803590602001909291908035906020019064010000000081111561043e57600080fd5b82018360208201111561045057600080fd5b8035906020019184600183028401116401000000008311171561047257600080fd5b9091929391929390505050610f25565b005b34801561049057600080fd5b5061053c600480360360808110156104a757600080fd5b81019080803573ffffffffffffffffffffffffffffffffffffffff1690602001909291908035906020019092919080359060200190929190803590602001906401000000008111156104f857600080fd5b82018360208201111561050a57600080fd5b8035906020019184600183028401116401000000008311171561052c57600080fd5b9091929391929390505050610f39565b005b34801561054a57600080fd5b506105f66004803603608081101561056157600080fd5b81019080803573ffffffffffffffffffffffffffffffffffffffff1690602001909291908035906020019092919080359060200190929190803590602001906401000000008111156105b257600080fd5b8201836020820111156105c457600080fd5b803590602001918460018302840111640100000000831117156105e657600080fd5b9091929391929390505050610f4d565b005b34801561060457600080fd5b506106b06004803603608081101561061b57600080fd5b81019080803573ffffffffffffffffffffffffffffffffffffffff16906020019092919080359060200190929190803590602001909291908035906020019064010000000081111561066c57600080fd5b82018360208201111561067e57600080fd5b803590602001918460018302840111640100000000831117156106a057600080fd5b9091929391929390505050610f61565b005b3480156106be57600080fd5b506106c7610f75565b604051808273ffffffffffffffffffffffffffffffffffffffff16815260200191505060405180910390f35b3480156106ff57600080fd5b506107ab6004803603608081101561071657600080fd5b81019080803573ffffffffffffffffffffffffffffffffffffffff16906020019092919080359060200190929190803590602001909291908035906020019064010000000081111561076757600080fd5b82018360208201111561077957600080fd5b8035906020019184600183028401116401000000008311171561079b57600080fd5b9091929391929390505050610f99565b005b3480156107b957600080fd5b50610866600480360360a08110156107d057600080fd5b81019080803573ffffffffffffffffffffffffffffffffffffffff169060200190929190803573ffffffffffffffffffffffffffffffffffffffff16906020019092919080359060200190929190803573ffffffffffffffffffffffffffffffffffffffff169060200190929190803573ffffffffffffffffffffffffffffffffffffffff169060200190929190505050610fad565b604051808381526020018281526020019250505060405180910390f35b34801561088f57600080fd5b5061093b600480360360808110156108a657600080fd5b81019080803573ffffffffffffffffffffffffffffffffffffffff1690602001909291908035906020019092919080359060200190929190803590602001906401000000008111156108f757600080fd5b82018360208201111561090957600080fd5b8035906020019184600183028401116401000000008311171561092b57600080fd5b9091929391929390505050611488565b005b864311156109b3576040517f08c379a00000000000000000000000000000000000000000000000000000000081526004018080602001828103825260038152602001807f653030000000000000000000000000000000000000000000000000000000000081525060200191505060405180910390fd5b6000806109c38888888888610fad565b9150915060008373ffffffffffffffffffffffffffffffffffffffff1663e6a439058a8a6040518363ffffffff1660e01b8152600401808373ffffffffffffffffffffffffffffffffffffffff1681526020018273ffffffffffffffffffffffffffffffffffffffff1681526020019250505060206040518083038186803b158015610a4e57600080fd5b505afa158015610a62573d6000803e3d6000fd5b505050506040513d6020811015610a7857600080fd5b81019080805190602001909291905050509050600073ffffffffffffffffffffffffffffffffffffffff168173ffffffffffffffffffffffffffffffffffffffff161415610b2e576040517f08c379a00000000000000000000000000000000000000000000000000000000081526004018080602001828103825260038152602001807f653130000000000000000000000000000000000000000000000000000000000081525060200191505060405180910390fd5b60008173ffffffffffffffffffffffffffffffffffffffff16630dfe16816040518163ffffffff1660e01b815260040160206040518083038186803b158015610b7657600080fd5b505afa158015610b8a573d6000803e3d6000fd5b505050506040513d6020811015610ba057600080fd5b8101908080519060200190929190505050905060008273ffffffffffffffffffffffffffffffffffffffff1663d21220a76040518163ffffffff1660e01b815260040160206040518083038186803b158015610bfb57600080fd5b505afa158015610c0f573d6000803e3d6000fd5b505050506040513d6020811015610c2557600080fd5b81019080805190602001909291905050509050600073ffffffffffffffffffffffffffffffffffffffff168273ffffffffffffffffffffffffffffffffffffffff1614158015610ca25750600073ffffffffffffffffffffffffffffffffffffffff168173ffffffffffffffffffffffffffffffffffffffff1614155b610d14576040517f08c379a00000000000000000000000000000000000000000000000000000000081526004018080602001828103825260038152602001807f653131000000000000000000000000000000000000000000000000000000000081525060200191505060405180910390fd5b8273ffffffffffffffffffffffffffffffffffffffff1663022c0d9f8373ffffffffffffffffffffffffffffffffffffffff168c73ffffffffffffffffffffffffffffffffffffffff1614610d6a576000610d6c565b855b8373ffffffffffffffffffffffffffffffffffffffff168d73ffffffffffffffffffffffffffffffffffffffff1614610da6576000610da8565b865b308c8c604051602001808373ffffffffffffffffffffffffffffffffffffffff1681526020018273ffffffffffffffffffffffffffffffffffffffff168152602001925050506040516020818303038152906040526040518563ffffffff1660e01b8152600401808581526020018481526020018373ffffffffffffffffffffffffffffffffffffffff16815260200180602001828103825283818151815260200191508051906020019080838360005b83811015610e74578082015181840152602081019050610e59565b50505050905090810190601f168015610ea15780820380516001836020036101000a031916815260200191505b5095505050505050600060405180830381600087803b158015610ec357600080fd5b505af1158015610ed7573d6000803e3d6000fd5b50505050505050505050505050505050565b610ef6858585858561149c565b5050505050565b610f0a858585858561149c565b5050505050565b610f1e858585858561149c565b5050505050565b610f32858585858561149c565b5050505050565b610f46858585858561149c565b5050505050565b610f5a858585858561149c565b5050505050565b610f6e858585858561149c565b5050505050565b60008054906101000a900473ffffffffffffffffffffffffffffffffffffffff1681565b610fa6858585858561149c565b5050505050565b6000806000600267ffffffffffffffff81118015610fca57600080fd5b50604051908082528060200260200182016040528015610ff95781602001602082028036833780820191505090505b5090506000600267ffffffffffffffff8111801561101657600080fd5b506040519080825280602002602001820160405280156110455781602001602082028036833780820191505090505b509050888160018151811061105657fe5b602002602001019073ffffffffffffffffffffffffffffffffffffffff16908173ffffffffffffffffffffffffffffffffffffffff168152508260008151811061109c57fe5b602002602001019073ffffffffffffffffffffffffffffffffffffffff16908173ffffffffffffffffffffffffffffffffffffffff168152505087816000815181106110e457fe5b602002602001019073ffffffffffffffffffffffffffffffffffffffff16908173ffffffffffffffffffffffffffffffffffffffff168152508260018151811061112a57fe5b602002602001019073ffffffffffffffffffffffffffffffffffffffff16908173ffffffffffffffffffffffffffffffffffffffff168152505060008673ffffffffffffffffffffffffffffffffffffffff1663d06ca61f89856040518363ffffffff1660e01b81526004018083815260200180602001828103825283818151815260200191508051906020019060200280838360005b838110156111dc5780820151818401526020810190506111c1565b50505050905001935050505060006040518083038186803b15801561120057600080fd5b505afa158015611214573d6000803e3d6000fd5b505050506040513d6000823e3d601f19601f82011682018060405250602081101561123e57600080fd5b810190808051604051939291908464010000000082111561125e57600080fd5b8382019150602082018581111561127457600080fd5b825186602082028301116401000000008211171561129157600080fd5b8083526020830192505050908051906020019060200280838360005b838110156112c85780820151818401526020810190506112ad565b505050509050016040525050506001815181106112e157fe5b6020026020010151905060008673ffffffffffffffffffffffffffffffffffffffff1663d06ca61f83856040518363ffffffff1660e01b81526004018083815260200180602001828103825283818151815260200191508051906020019060200280838360005b83811015611363578082015181840152602081019050611348565b50505050905001935050505060006040518083038186803b15801561138757600080fd5b505afa15801561139b573d6000803e3d6000fd5b505050506040513d6000823e3d601f19601f8201168201806040525060208110156113c557600080fd5b81019080805160405193929190846401000000008211156113e557600080fd5b838201915060208201858111156113fb57600080fd5b825186602082028301116401000000008211171561141857600080fd5b8083526020830192505050908051906020019060200280838360005b8381101561144f578082015181840152602081019050611434565b5050505090500160405250505060018151811061146857fe5b602002602001015190508881038295509550505050509550959350505050565b611495858585858561149c565b5050505050565b60008085146114ab57846114ad565b835b9050600033905060008173ffffffffffffffffffffffffffffffffffffffff16630dfe16816040518163ffffffff1660e01b815260040160206040518083038186803b1580156114fc57600080fd5b505afa158015611510573d6000803e3d6000fd5b505050506040513d602081101561152657600080fd5b8101908080519060200190929190505050905060008273ffffffffffffffffffffffffffffffffffffffff1663d21220a76040518163ffffffff1660e01b815260040160206040518083038186803b15801561158157600080fd5b505afa158015611595573d6000803e3d6000fd5b505050506040513d60208110156115ab57600080fd5b810190808051906020019092919050505090506000600267ffffffffffffffff811180156115d857600080fd5b506040519080825280602002602001820160405280156116075781602001602082028036833780820191505090505b5090506000600267ffffffffffffffff8111801561162457600080fd5b506040519080825280602002602001820160405280156116535781602001602082028036833780820191505090505b5090506000808b146116655784611667565b835b90506000808c14611678578461167a565b855b9050818360018151811061168a57fe5b602002602001019073ffffffffffffffffffffffffffffffffffffffff16908173ffffffffffffffffffffffffffffffffffffffff16815250846000815181106116d057fe5b602002602001019073ffffffffffffffffffffffffffffffffffffffff16908173ffffffffffffffffffffffffffffffffffffffff1681525050808360008151811061171857fe5b602002602001019073ffffffffffffffffffffffffffffffffffffffff16908173ffffffffffffffffffffffffffffffffffffffff168152508460018151811061175e57fe5b602002602001019073ffffffffffffffffffffffffffffffffffffffff16908173ffffffffffffffffffffffffffffffffffffffff16815250506000808b8b60408110156117ab57600080fd5b81019080803573ffffffffffffffffffffffffffffffffffffffff169060200190929190803573ffffffffffffffffffffffffffffffffffffffff16906020019092919050505091509150600073ffffffffffffffffffffffffffffffffffffffff168273ffffffffffffffffffffffffffffffffffffffff16141580156118605750600073ffffffffffffffffffffffffffffffffffffffff168173ffffffffffffffffffffffffffffffffffffffff1614155b6118d2576040517f08c379a00000000000000000000000000000000000000000000000000000000081526004018080602001828103825260038152602001807f653132000000000000000000000000000000000000000000000000000000000081525060200191505060405180910390fd5b60008490508073ffffffffffffffffffffffffffffffffffffffff1663095ea7b3838d6040518363ffffffff1660e01b8152600401808373ffffffffffffffffffffffffffffffffffffffff16815260200182815260200192505050602060405180830381600087803b15801561194857600080fd5b505af115801561195c573d6000803e3d6000fd5b505050506040513d602081101561197257600080fd5b81019080805190602001909291905050505060008373ffffffffffffffffffffffffffffffffffffffff16631f00ca748d896040518363ffffffff1660e01b81526004018083815260200180602001828103825283818151815260200191508051906020019060200280838360005b838110156119fc5780820151818401526020810190506119e1565b50505050905001935050505060006040518083038186803b158015611a2057600080fd5b505afa158015611a34573d6000803e3d6000fd5b505050506040513d6000823e3d601f19601f820116820180604052506020811015611a5e57600080fd5b8101908080516040519392919084640100000000821115611a7e57600080fd5b83820191506020820185811115611a9457600080fd5b8251866020820283011164010000000082111715611ab157600080fd5b8083526020830192505050908051906020019060200280838360005b83811015611ae8578082015181840152602081019050611acd565b50505050905001604052505050600081518110611b0157fe5b6020026020010151905060008373ffffffffffffffffffffffffffffffffffffffff166338ed17398e848c30603c42016040518663ffffffff1660e01b815260040180868152602001858152602001806020018473ffffffffffffffffffffffffffffffffffffffff168152602001838152602001828103825285818151815260200191508051906020019060200280838360005b83811015611bb1578082015181840152602081019050611b96565b505050509050019650505050505050600060405180830381600087803b158015611bda57600080fd5b505af1158015611bee573d6000803e3d6000fd5b505050506040513d6000823e3d601f19601f820116820180604052506020811015611c1857600080fd5b8101908080516040519392919084640100000000821115611c3857600080fd5b83820191506020820185811115611c4e57600080fd5b8251866020820283011164010000000082111715611c6b57600080fd5b8083526020830192505050908051906020019060200280838360005b83811015611ca2578082015181840152602081019050611c87565b50505050905001604052505050600181518110611cbb57fe5b6020026020010151905060008690508073ffffffffffffffffffffffffffffffffffffffff1663a9059cbb33856040518363ffffffff1660e01b8152600401808373ffffffffffffffffffffffffffffffffffffffff16815260200182815260200192505050602060405180830381600087803b158015611d3b57600080fd5b505af1158015611d4f573d6000803e3d6000fd5b505050506040513d6020811015611d6557600080fd5b81019080805190602001909291905050505082821115611e4f578073ffffffffffffffffffffffffffffffffffffffff1663a9059cbb60008054906101000a900473ffffffffffffffffffffffffffffffffffffffff168585036040518363ffffffff1660e01b8152600401808373ffffffffffffffffffffffffffffffffffffffff16815260200182815260200192505050602060405180830381600087803b158015611e1257600080fd5b505af1158015611e26573d6000803e3d6000fd5b505050506040513d6020811015611e3c57600080fd5b8101908080519060200190929190505050505b5050505050505050505050505050505050505056fea2646970667358221220fe9dd2bb45bc8d46a75bcf4bb2b5d5eea305d57355dd52cba8cb7a14ba55c43e64736f6c63430007060033",
  "immutableReferences": {},
  "source": "// SPDX-License-Identifier: UNLICENSED\r\n\r\npragma solidity >=0.6.6 <0.8.0;\r\n\r\nimport './UniswapV2Library.sol';\r\nimport './interfaces/IERC20.sol';\r\nimport './interfaces/IUniswapV2Pair.sol';\r\nimport './interfaces/IUniswapV2Factory.sol';\r\nimport './interfaces/IUniswapV2Router02.sol';\r\n\r\n// @author Daniel Espendiller - https://github.com/Haehnchen/uniswap-arbitrage-flash-swap - espend.de\r\n//\r\n// e00: out of block\r\n// e01: no profit\r\n// e10: Requested pair is not available\r\n// e11: token0 / token1 does not exist\r\n// e12: src/target router empty\r\n// e13: pancakeCall not enough tokens for buyback\r\n// e14: pancakeCall msg.sender transfer failed\r\n// e15: pancakeCall owner transfer failed\r\n// e16:\r\n\r\ncontract Flashswaptest {\r\n\r\n    address public owner;\r\n\r\n    constructor() {\r\n        owner = msg.sender;\r\n    }\r\n\r\n    // https://github.com/Haehnchen/uniswap-arbitrage-flash-swap/blob/main/contracts/Flashswap.sol\r\n    function start(\r\n        uint _maxBlockNumber,\r\n        address _tokenPay, // source currency when we will get; example BNB\r\n        address _tokenSwap, // swapped currency with the source currency; example BUSD\r\n        uint _amountTokenPay, // example: BNB => 10 * 1e18\r\n        address _sourceRouter,\r\n        address _targetRouter,\r\n        address _sourceFactory\r\n    ) external {\r\n        require(block.number <= _maxBlockNumber, 'e00');\r\n\r\n        // recheck for stopping and gas usage\r\n        (int profit, uint _tokenBorrowAmount) = check(_tokenPay, _tokenSwap, _amountTokenPay, _sourceRouter, _targetRouter);\r\n        // profit needs to be greater than 0, otherwise revert a transaction\r\n        \r\n        // comment out profit > 0, bypass this condition for testing purpose\r\n        // require(profit > 0, 'e01');\r\n\r\n        // https://docs.uniswap.org/protocol/V2/reference/smart-contracts/factory#getpair\r\n        address pairAddress = IUniswapV2Factory(_sourceFactory).getPair(_tokenPay, _tokenSwap);\r\n        require(pairAddress != address(0), 'e10');\r\n\r\n        // scope for token{0,1}, avoids stack too deep errors\r\n        address token0 = IUniswapV2Pair(pairAddress).token0();\r\n        address token1 = IUniswapV2Pair(pairAddress).token1();\r\n\r\n        require(token0 != address(0) && token1 != address(0), 'e11');\r\n\r\n        // https://docs.uniswap.org/protocol/V2/guides/smart-contract-integration/using-flash-swaps\r\n        // _tokenPay can be zero because they should be sent from within a callback function\r\n        // that the pair triggers on the to address, to address is address(this) in thie contract\r\n        IUniswapV2Pair(pairAddress).swap(\r\n            _tokenSwap == token0 ? _tokenBorrowAmount : 0,\r\n            _tokenSwap == token1 ? _tokenBorrowAmount : 0,\r\n            address(this),\r\n            abi.encode(_sourceRouter, _targetRouter)\r\n        );\r\n    }\r\n\r\n    function check(\r\n        address _tokenPay, // source currency when we will get; example BNB\r\n        address _tokenSwap, // swapped currency with the source currency; example BUSD\r\n        uint _amountTokenPay, // example: BNB => 10 * 1e18\r\n        address _sourceRouter,\r\n        address _targetRouter\r\n    ) public view returns(int, uint) {\r\n        address[] memory path1 = new address[](2);\r\n        address[] memory path2 = new address[](2);\r\n\r\n        // path1 represents the forwarding exchange from source currency to swapped currency\r\n        path1[0] = path2[1] = _tokenPay;\r\n        // path2 represents the backward exchange from swapeed currency to source currency\r\n        path1[1] = path2[0] = _tokenSwap;\r\n\r\n        uint amountOut = IUniswapV2Router02(_sourceRouter).getAmountsOut(_amountTokenPay, path1)[1];\r\n        uint amountRepay = IUniswapV2Router02(_targetRouter).getAmountsOut(amountOut, path2)[1];\r\n\r\n        return (\r\n            int(amountRepay - _amountTokenPay), // our profit or loss; example output: BNB\r\n            amountOut // the amount we get from our input \"_amountTokenPay\"; example: BUSD amount\r\n        );\r\n    }\r\n\r\n    function execute(\r\n        address _sender,\r\n        uint _amount0,\r\n        uint _amount1,\r\n        bytes calldata _data\r\n    ) internal {\r\n        // obtain an amount of token that you exchanged, for example BUSD\r\n        uint amountToken = _amount0 == 0 ? _amount1 : _amount0;\r\n\r\n        IUniswapV2Pair iUniswapV2Pair = IUniswapV2Pair(msg.sender);\r\n        address token0 = iUniswapV2Pair.token0();\r\n        address token1 = iUniswapV2Pair.token1();\r\n\r\n        // require(token0 != address(0) && token1 != address(0), 'e16');\r\n\r\n        // if _amount0 is zero sell token1 for token0\r\n        // else sell token0 for token1 as a result\r\n        address[] memory path1 = new address[](2);\r\n        address[] memory path2 = new address[](2);\r\n\r\n        address forward = _amount0 == 0 ? token1 : token0;\r\n        address backward = _amount0 == 0 ? token0 : token1;\r\n\r\n        // path1 represents the forwarding exchange from source currency to swapped currency\r\n        // path1[0] = path2[1] = _amount0 == 0 ? token1 : token0;\r\n        path1[0] = path2[1] = forward;\r\n        // path2 represents the backward exchange from swapeed currency to source currency\r\n        // path1[1] = path2[0] = _amount0 == 0 ? token0 : token1;\r\n        path1[1] = path2[0] = backward;\r\n\r\n        (address sourceRouter, address targetRouter) = abi.decode(_data, (address, address));\r\n        require(sourceRouter != address(0) && targetRouter != address(0), 'e12');\r\n\r\n        // IERC20 token that we will sell for otherToken, for example BUSD\r\n        // IERC20 token = IERC20(_amount0 == 0 ? token1 : token0);\r\n        IERC20 token = IERC20(forward);\r\n        token.approve(targetRouter, amountToken);\r\n\r\n        // calculate the amount of token how much input token should be reimbursed, BNB -> BUSD\r\n        uint amountRequired = IUniswapV2Router02(sourceRouter).getAmountsIn(amountToken, path2)[0];\r\n\r\n        // swap token and obtain equivalent otherToken amountRequired as a result, BUSD -> BNB\r\n        uint amountReceived = IUniswapV2Router02(targetRouter).swapExactTokensForTokens(\r\n            amountToken,\r\n            amountRequired, // we already now what we need at least for payback; get less is a fail; slippage can be done via - ((amountRequired * 19) / 981) + 1,\r\n            path1,\r\n            address(this), \r\n            block.timestamp + 60\r\n        )[1];\r\n\r\n        // fail if we didn't get enough tokens, bypass this condition for testing purpose\r\n        // require(amountReceived > amountRequired, 'e13');\r\n\r\n        // IERC20 otherToken = IERC20(_amount0 == 0 ? token0 : token1);\r\n        IERC20 otherToken = IERC20(backward);\r\n\r\n        // callback should send the funds to the pair address back\r\n        otherToken.transfer(msg.sender, amountRequired); // send back borrow\r\n\r\n        // transfer the profit to the contract owner, if not do not anything\r\n        if (amountReceived > amountRequired) {\r\n            otherToken.transfer(owner, amountReceived - amountRequired);\r\n        }\r\n    }\r\n\r\n    // c&p\r\n    // pancake, pancakeV2, apeswap, kebab\r\n    function pancakeCall(address _sender, uint256 _amount0, uint256 _amount1, bytes calldata _data) external {\r\n        execute(_sender, _amount0, _amount1, _data);\r\n    }\r\n\r\n    function waultSwapCall(address _sender, uint256 _amount0, uint256 _amount1, bytes calldata _data) external {\r\n        execute(_sender, _amount0, _amount1, _data);\r\n    }\r\n\r\n    function uniswapV2Call(address _sender, uint256 _amount0, uint256 _amount1, bytes calldata _data) external {\r\n        execute(_sender, _amount0, _amount1, _data);\r\n    }\r\n\r\n    // mdex\r\n    function swapV2Call(address _sender, uint256 _amount0, uint256 _amount1, bytes calldata _data) external {\r\n        execute(_sender, _amount0, _amount1, _data);\r\n    }\r\n\r\n    // pantherswap\r\n    function pantherCall(address _sender, uint256 _amount0, uint256 _amount1, bytes calldata _data) external {\r\n        execute(_sender, _amount0, _amount1, _data);\r\n    }\r\n\r\n    // jetswap\r\n    function jetswapCall(address _sender, uint256 _amount0, uint256 _amount1, bytes calldata _data) external {\r\n        execute(_sender, _amount0, _amount1, _data);\r\n    }\r\n\r\n    // cafeswap\r\n    function cafeCall(address _sender, uint256 _amount0, uint256 _amount1, bytes calldata _data) external {\r\n        execute(_sender, _amount0, _amount1, _data);\r\n    }\r\n\r\n    // @TODO: pending release\r\n    function BiswapCall(address _sender, uint256 _amount0, uint256 _amount1, bytes calldata _data) external {\r\n        execute(_sender, _amount0, _amount1, _data);\r\n    }\r\n\r\n    // @TODO: pending release\r\n    function wardenCall(address _sender, uint256 _amount0, uint256 _amount1, bytes calldata _data) external {\r\n        execute(_sender, _amount0, _amount1, _data);\r\n    }\r\n\r\n    receive() external payable {}\r\n}\r\n\r\n",
  "sourcePath": "E:\\flashloan\\AI-AutoTrade-Bot\\contracts\\Flashswaptest.sol",
  "compiler": {
    "name": "solc",
    "version": "0.7.6+commit.7338295f.Emscripten.clang"
  },
  "schemaVersion": "3.4.16",
  "updatedAt": "2024-02-05T07:53:30.898Z",
  "devdoc": {
    "kind": "dev",
    "methods": {},
    "version": 1
  },
  "userdoc": {
    "kind": "user",
    "methods": {},
    "version": 1
  }
}