{
  "contractName": "Flashswap",
  "abi": [
    {
      "inputs": [],
      "stateMutability": "nonpayable",
      "type": "constructor"
    },
    {
      "inputs": [],
      "name": "owner",
      "outputs": [
        {
          "internalType": "address",
          "name": "",
          "type": "address"
        }
      ],
      "stateMutability": "view",
      "type": "function"
    },
    {
      "stateMutability": "payable",
      "type": "receive"
    },
    {
      "inputs": [
        {
          "internalType": "uint256",
          "name": "_maxBlockNumber",
          "type": "uint256"
        },
        {
          "internalType": "address",
          "name": "_tokenPay",
          "type": "address"
        },
        {
          "internalType": "address",
          "name": "_tokenSwap",
          "type": "address"
        },
        {
          "internalType": "uint256",
          "name": "_amountTokenPay",
          "type": "uint256"
        },
        {
          "internalType": "address",
          "name": "_sourceRouter",
          "type": "address"
        },
        {
          "internalType": "address",
          "name": "_targetRouter",
          "type": "address"
        },
        {
          "internalType": "address",
          "name": "_sourceFactory",
          "type": "address"
        }
      ],
      "name": "startArbitrage",
      "outputs": [],
      "stateMutability": "nonpayable",
      "type": "function"
    },
    {
      "inputs": [
        {
          "internalType": "address",
          "name": "_tokenPay",
          "type": "address"
        },
        {
          "internalType": "address",
          "name": "_tokenSwap",
          "type": "address"
        },
        {
          "internalType": "uint256",
          "name": "_amountTokenPay",
          "type": "uint256"
        },
        {
          "internalType": "address",
          "name": "_sourceRouter",
          "type": "address"
        },
        {
          "internalType": "address",
          "name": "_targetRouter",
          "type": "address"
        }
      ],
      "name": "check",
      "outputs": [
        {
          "internalType": "int256",
          "name": "",
          "type": "int256"
        },
        {
          "internalType": "uint256",
          "name": "",
          "type": "uint256"
        }
      ],
      "stateMutability": "view",
      "type": "function"
    },
    {
      "inputs": [
        {
          "internalType": "address",
          "name": "_sender",
          "type": "address"
        },
        {
          "internalType": "uint256",
          "name": "_amount0",
          "type": "uint256"
        },
        {
          "internalType": "uint256",
          "name": "_amount1",
          "type": "uint256"
        },
        {
          "internalType": "bytes",
          "name": "_data",
          "type": "bytes"
        }
      ],
      "name": "pancakeCall",
      "outputs": [],
      "stateMutability": "nonpayable",
      "type": "function"
    },
    {
      "inputs": [
        {
          "internalType": "address",
          "name": "_sender",
          "type": "address"
        },
        {
          "internalType": "uint256",
          "name": "_amount0",
          "type": "uint256"
        },
        {
          "internalType": "uint256",
          "name": "_amount1",
          "type": "uint256"
        },
        {
          "internalType": "bytes",
          "name": "_data",
          "type": "bytes"
        }
      ],
      "name": "waultSwapCall",
      "outputs": [],
      "stateMutability": "nonpayable",
      "type": "function"
    },
    {
      "inputs": [
        {
          "internalType": "address",
          "name": "_sender",
          "type": "address"
        },
        {
          "internalType": "uint256",
          "name": "_amount0",
          "type": "uint256"
        },
        {
          "internalType": "uint256",
          "name": "_amount1",
          "type": "uint256"
        },
        {
          "internalType": "bytes",
          "name": "_data",
          "type": "bytes"
        }
      ],
      "name": "uniswapV2Call",
      "outputs": [],
      "stateMutability": "nonpayable",
      "type": "function"
    },
    {
      "inputs": [
        {
          "internalType": "address",
          "name": "_sender",
          "type": "address"
        },
        {
          "internalType": "uint256",
          "name": "_amount0",
          "type": "uint256"
        },
        {
          "internalType": "uint256",
          "name": "_amount1",
          "type": "uint256"
        },
        {
          "internalType": "bytes",
          "name": "_data",
          "type": "bytes"
        }
      ],
      "name": "swapV2Call",
      "outputs": [],
      "stateMutability": "nonpayable",
      "type": "function"
    },
    {
      "inputs": [
        {
          "internalType": "address",
          "name": "_sender",
          "type": "address"
        },
        {
          "internalType": "uint256",
          "name": "_amount0",
          "type": "uint256"
        },
        {
          "internalType": "uint256",
          "name": "_amount1",
          "type": "uint256"
        },
        {
          "internalType": "bytes",
          "name": "_data",
          "type": "bytes"
        }
      ],
      "name": "pantherCall",
      "outputs": [],
      "stateMutability": "nonpayable",
      "type": "function"
    },
    {
      "inputs": [
        {
          "internalType": "address",
          "name": "_sender",
          "type": "address"
        },
        {
          "internalType": "uint256",
          "name": "_amount0",
          "type": "uint256"
        },
        {
          "internalType": "uint256",
          "name": "_amount1",
          "type": "uint256"
        },
        {
          "internalType": "bytes",
          "name": "_data",
          "type": "bytes"
        }
      ],
      "name": "jetswapCall",
      "outputs": [],
      "stateMutability": "nonpayable",
      "type": "function"
    },
    {
      "inputs": [
        {
          "internalType": "address",
          "name": "_sender",
          "type": "address"
        },
        {
          "internalType": "uint256",
          "name": "_amount0",
          "type": "uint256"
        },
        {
          "internalType": "uint256",
          "name": "_amount1",
          "type": "uint256"
        },
        {
          "internalType": "bytes",
          "name": "_data",
          "type": "bytes"
        }
      ],
      "name": "cafeCall",
      "outputs": [],
      "stateMutability": "nonpayable",
      "type": "function"
    },
    {
      "inputs": [
        {
          "internalType": "address",
          "name": "_sender",
          "type": "address"
        },
        {
          "internalType": "uint256",
          "name": "_amount0",
          "type": "uint256"
        },
        {
          "internalType": "uint256",
          "name": "_amount1",
          "type": "uint256"
        },
        {
          "internalType": "bytes",
          "name": "_data",
          "type": "bytes"
        }
      ],
      "name": "BiswapCall",
      "outputs": [],
      "stateMutability": "nonpayable",
      "type": "function"
    },
    {
      "inputs": [
        {
          "internalType": "address",
          "name": "_sender",
          "type": "address"
        },
        {
          "internalType": "uint256",
          "name": "_amount0",
          "type": "uint256"
        },
        {
          "internalType": "uint256",
          "name": "_amount1",
          "type": "uint256"
        },
        {
          "internalType": "bytes",
          "name": "_data",
          "type": "bytes"
        }
      ],
      "name": "wardenCall",
      "outputs": [],
      "stateMutability": "nonpayable",
      "type": "function"
    }
  ],
  "bytecode": "0x608060405234801561001057600080fd5b50336000806101000a81548173ffffffffffffffffffffffffffffffffffffffff021916908373ffffffffffffffffffffffffffffffffffffffff160217905550611f7c806100606000396000f3fe6080604052600436106100ab5760003560e01c806364126b261161006457806364126b261461051357806384800812146105f85780638da5cb5b146106b2578063b2ff9f26146106f3578063c08757bc146107ad578063ec78ce5014610883576100b2565b806310d1e85c146100b75780631c8f37b3146101715780633fc016851461022b57806346337f3a146102e5578063485f39941461039f5780635b3bc4fe14610459576100b2565b366100b257005b600080fd5b3480156100c357600080fd5b5061016f600480360360808110156100da57600080fd5b81019080803573ffffffffffffffffffffffffffffffffffffffff16906020019092919080359060200190929190803590602001909291908035906020019064010000000081111561012b57600080fd5b82018360208201111561013d57600080fd5b8035906020019184600183028401116401000000008311171561015f57600080fd5b909192939192939050505061093d565b005b34801561017d57600080fd5b506102296004803603608081101561019457600080fd5b81019080803573ffffffffffffffffffffffffffffffffffffffff1690602001909291908035906020019092919080359060200190929190803590602001906401000000008111156101e557600080fd5b8201836020820111156101f757600080fd5b8035906020019184600183028401116401000000008311171561021957600080fd5b9091929391929390505050610951565b005b34801561023757600080fd5b506102e36004803603608081101561024e57600080fd5b81019080803573ffffffffffffffffffffffffffffffffffffffff16906020019092919080359060200190929190803590602001909291908035906020019064010000000081111561029f57600080fd5b8201836020820111156102b157600080fd5b803590602001918460018302840111640100000000831117156102d357600080fd5b9091929391929390505050610965565b005b3480156102f157600080fd5b5061039d6004803603608081101561030857600080fd5b81019080803573ffffffffffffffffffffffffffffffffffffffff16906020019092919080359060200190929190803590602001909291908035906020019064010000000081111561035957600080fd5b82018360208201111561036b57600080fd5b8035906020019184600183028401116401000000008311171561038d57600080fd5b9091929391929390505050610979565b005b3480156103ab57600080fd5b50610457600480360360808110156103c257600080fd5b81019080803573ffffffffffffffffffffffffffffffffffffffff16906020019092919080359060200190929190803590602001909291908035906020019064010000000081111561041357600080fd5b82018360208201111561042557600080fd5b8035906020019184600183028401116401000000008311171561044757600080fd5b909192939192939050505061098d565b005b34801561046557600080fd5b506105116004803603608081101561047c57600080fd5b81019080803573ffffffffffffffffffffffffffffffffffffffff1690602001909291908035906020019092919080359060200190929190803590602001906401000000008111156104cd57600080fd5b8201836020820111156104df57600080fd5b8035906020019184600183028401116401000000008311171561050157600080fd5b90919293919293905050506109a1565b005b34801561051f57600080fd5b506105f6600480360360e081101561053657600080fd5b8101908080359060200190929190803573ffffffffffffffffffffffffffffffffffffffff169060200190929190803573ffffffffffffffffffffffffffffffffffffffff16906020019092919080359060200190929190803573ffffffffffffffffffffffffffffffffffffffff169060200190929190803573ffffffffffffffffffffffffffffffffffffffff169060200190929190803573ffffffffffffffffffffffffffffffffffffffff1690602001909291905050506109b5565b005b34801561060457600080fd5b506106b06004803603608081101561061b57600080fd5b81019080803573ffffffffffffffffffffffffffffffffffffffff16906020019092919080359060200190929190803590602001909291908035906020019064010000000081111561066c57600080fd5b82018360208201111561067e57600080fd5b803590602001918460018302840111640100000000831117156106a057600080fd5b9091929391929390505050610fd7565b005b3480156106be57600080fd5b506106c7610feb565b604051808273ffffffffffffffffffffffffffffffffffffffff16815260200191505060405180910390f35b3480156106ff57600080fd5b506107ab6004803603608081101561071657600080fd5b81019080803573ffffffffffffffffffffffffffffffffffffffff16906020019092919080359060200190929190803590602001909291908035906020019064010000000081111561076757600080fd5b82018360208201111561077957600080fd5b8035906020019184600183028401116401000000008311171561079b57600080fd5b909192939192939050505061100f565b005b3480156107b957600080fd5b50610866600480360360a08110156107d057600080fd5b81019080803573ffffffffffffffffffffffffffffffffffffffff169060200190929190803573ffffffffffffffffffffffffffffffffffffffff16906020019092919080359060200190929190803573ffffffffffffffffffffffffffffffffffffffff169060200190929190803573ffffffffffffffffffffffffffffffffffffffff169060200190929190505050611023565b604051808381526020018281526020019250505060405180910390f35b34801561088f57600080fd5b5061093b600480360360808110156108a657600080fd5b81019080803573ffffffffffffffffffffffffffffffffffffffff1690602001909291908035906020019092919080359060200190929190803590602001906401000000008111156108f757600080fd5b82018360208201111561090957600080fd5b8035906020019184600183028401116401000000008311171561092b57600080fd5b90919293919293905050506114fe565b005b61094a8585858585611512565b5050505050565b61095e8585858585611512565b5050505050565b6109728585858585611512565b5050505050565b6109868585858585611512565b5050505050565b61099a8585858585611512565b5050505050565b6109ae8585858585611512565b5050505050565b86431115610a2b576040517f08c379a00000000000000000000000000000000000000000000000000000000081526004018080602001828103825260038152602001807f653030000000000000000000000000000000000000000000000000000000000081525060200191505060405180910390fd5b600080610a3b8888888888611023565b9150915060008213610ab5576040517f08c379a00000000000000000000000000000000000000000000000000000000081526004018080602001828103825260038152602001807f653031000000000000000000000000000000000000000000000000000000000081525060200191505060405180910390fd5b60008373ffffffffffffffffffffffffffffffffffffffff1663e6a439058a8a6040518363ffffffff1660e01b8152600401808373ffffffffffffffffffffffffffffffffffffffff1681526020018273ffffffffffffffffffffffffffffffffffffffff1681526020019250505060206040518083038186803b158015610b3c57600080fd5b505afa158015610b50573d6000803e3d6000fd5b505050506040513d6020811015610b6657600080fd5b81019080805190602001909291905050509050600073ffffffffffffffffffffffffffffffffffffffff168173ffffffffffffffffffffffffffffffffffffffff161415610c1c576040517f08c379a00000000000000000000000000000000000000000000000000000000081526004018080602001828103825260038152602001807f653130000000000000000000000000000000000000000000000000000000000081525060200191505060405180910390fd5b60008173ffffffffffffffffffffffffffffffffffffffff16630dfe16816040518163ffffffff1660e01b815260040160206040518083038186803b158015610c6457600080fd5b505afa158015610c78573d6000803e3d6000fd5b505050506040513d6020811015610c8e57600080fd5b8101908080519060200190929190505050905060008273ffffffffffffffffffffffffffffffffffffffff1663d21220a76040518163ffffffff1660e01b815260040160206040518083038186803b158015610ce957600080fd5b505afa158015610cfd573d6000803e3d6000fd5b505050506040513d6020811015610d1357600080fd5b81019080805190602001909291905050509050600073ffffffffffffffffffffffffffffffffffffffff168273ffffffffffffffffffffffffffffffffffffffff1614158015610d905750600073ffffffffffffffffffffffffffffffffffffffff168173ffffffffffffffffffffffffffffffffffffffff1614155b610e02576040517f08c379a00000000000000000000000000000000000000000000000000000000081526004018080602001828103825260038152602001807f653131000000000000000000000000000000000000000000000000000000000081525060200191505060405180910390fd5b8273ffffffffffffffffffffffffffffffffffffffff1663022c0d9f8373ffffffffffffffffffffffffffffffffffffffff168c73ffffffffffffffffffffffffffffffffffffffff1614610e58576000610e5a565b855b8373ffffffffffffffffffffffffffffffffffffffff168d73ffffffffffffffffffffffffffffffffffffffff1614610e94576000610e96565b865b308c8c604051602001808373ffffffffffffffffffffffffffffffffffffffff1681526020018273ffffffffffffffffffffffffffffffffffffffff168152602001925050506040516020818303038152906040526040518563ffffffff1660e01b8152600401808581526020018481526020018373ffffffffffffffffffffffffffffffffffffffff16815260200180602001828103825283818151815260200191508051906020019080838360005b83811015610f62578082015181840152602081019050610f47565b50505050905090810190601f168015610f8f5780820380516001836020036101000a031916815260200191505b5095505050505050600060405180830381600087803b158015610fb157600080fd5b505af1158015610fc5573d6000803e3d6000fd5b50505050505050505050505050505050565b610fe48585858585611512565b5050505050565b60008054906101000a900473ffffffffffffffffffffffffffffffffffffffff1681565b61101c8585858585611512565b5050505050565b6000806000600267ffffffffffffffff8111801561104057600080fd5b5060405190808252806020026020018201604052801561106f5781602001602082028036833780820191505090505b5090506000600267ffffffffffffffff8111801561108c57600080fd5b506040519080825280602002602001820160405280156110bb5781602001602082028036833780820191505090505b50905088816001815181106110cc57fe5b602002602001019073ffffffffffffffffffffffffffffffffffffffff16908173ffffffffffffffffffffffffffffffffffffffff168152508260008151811061111257fe5b602002602001019073ffffffffffffffffffffffffffffffffffffffff16908173ffffffffffffffffffffffffffffffffffffffff1681525050878160008151811061115a57fe5b602002602001019073ffffffffffffffffffffffffffffffffffffffff16908173ffffffffffffffffffffffffffffffffffffffff16815250826001815181106111a057fe5b602002602001019073ffffffffffffffffffffffffffffffffffffffff16908173ffffffffffffffffffffffffffffffffffffffff168152505060008673ffffffffffffffffffffffffffffffffffffffff1663d06ca61f89856040518363ffffffff1660e01b81526004018083815260200180602001828103825283818151815260200191508051906020019060200280838360005b83811015611252578082015181840152602081019050611237565b50505050905001935050505060006040518083038186803b15801561127657600080fd5b505afa15801561128a573d6000803e3d6000fd5b505050506040513d6000823e3d601f19601f8201168201806040525060208110156112b457600080fd5b81019080805160405193929190846401000000008211156112d457600080fd5b838201915060208201858111156112ea57600080fd5b825186602082028301116401000000008211171561130757600080fd5b8083526020830192505050908051906020019060200280838360005b8381101561133e578082015181840152602081019050611323565b5050505090500160405250505060018151811061135757fe5b6020026020010151905060008673ffffffffffffffffffffffffffffffffffffffff1663d06ca61f83856040518363ffffffff1660e01b81526004018083815260200180602001828103825283818151815260200191508051906020019060200280838360005b838110156113d95780820151818401526020810190506113be565b50505050905001935050505060006040518083038186803b1580156113fd57600080fd5b505afa158015611411573d6000803e3d6000fd5b505050506040513d6000823e3d601f19601f82011682018060405250602081101561143b57600080fd5b810190808051604051939291908464010000000082111561145b57600080fd5b8382019150602082018581111561147157600080fd5b825186602082028301116401000000008211171561148e57600080fd5b8083526020830192505050908051906020019060200280838360005b838110156114c55780820151818401526020810190506114aa565b505050509050016040525050506001815181106114de57fe5b602002602001015190508881038295509550505050509550959350505050565b61150b8585858585611512565b5050505050565b60008085146115215784611523565b835b9050600033905060008173ffffffffffffffffffffffffffffffffffffffff16630dfe16816040518163ffffffff1660e01b815260040160206040518083038186803b15801561157257600080fd5b505afa158015611586573d6000803e3d6000fd5b505050506040513d602081101561159c57600080fd5b8101908080519060200190929190505050905060008273ffffffffffffffffffffffffffffffffffffffff1663d21220a76040518163ffffffff1660e01b815260040160206040518083038186803b1580156115f757600080fd5b505afa15801561160b573d6000803e3d6000fd5b505050506040513d602081101561162157600080fd5b810190808051906020019092919050505090506000600267ffffffffffffffff8111801561164e57600080fd5b5060405190808252806020026020018201604052801561167d5781602001602082028036833780820191505090505b5090506000600267ffffffffffffffff8111801561169a57600080fd5b506040519080825280602002602001820160405280156116c95781602001602082028036833780820191505090505b5090506000808b146116db57846116dd565b835b90506000808c146116ee57846116f0565b855b9050818360018151811061170057fe5b602002602001019073ffffffffffffffffffffffffffffffffffffffff16908173ffffffffffffffffffffffffffffffffffffffff168152508460008151811061174657fe5b602002602001019073ffffffffffffffffffffffffffffffffffffffff16908173ffffffffffffffffffffffffffffffffffffffff1681525050808360008151811061178e57fe5b602002602001019073ffffffffffffffffffffffffffffffffffffffff16908173ffffffffffffffffffffffffffffffffffffffff16815250846001815181106117d457fe5b602002602001019073ffffffffffffffffffffffffffffffffffffffff16908173ffffffffffffffffffffffffffffffffffffffff16815250506000808b8b604081101561182157600080fd5b81019080803573ffffffffffffffffffffffffffffffffffffffff169060200190929190803573ffffffffffffffffffffffffffffffffffffffff16906020019092919050505091509150600073ffffffffffffffffffffffffffffffffffffffff168273ffffffffffffffffffffffffffffffffffffffff16141580156118d65750600073ffffffffffffffffffffffffffffffffffffffff168173ffffffffffffffffffffffffffffffffffffffff1614155b611948576040517f08c379a00000000000000000000000000000000000000000000000000000000081526004018080602001828103825260038152602001807f653132000000000000000000000000000000000000000000000000000000000081525060200191505060405180910390fd5b60008490508073ffffffffffffffffffffffffffffffffffffffff1663095ea7b3838d6040518363ffffffff1660e01b8152600401808373ffffffffffffffffffffffffffffffffffffffff16815260200182815260200192505050602060405180830381600087803b1580156119be57600080fd5b505af11580156119d2573d6000803e3d6000fd5b505050506040513d60208110156119e857600080fd5b81019080805190602001909291905050505060008373ffffffffffffffffffffffffffffffffffffffff16631f00ca748d896040518363ffffffff1660e01b81526004018083815260200180602001828103825283818151815260200191508051906020019060200280838360005b83811015611a72578082015181840152602081019050611a57565b50505050905001935050505060006040518083038186803b158015611a9657600080fd5b505afa158015611aaa573d6000803e3d6000fd5b505050506040513d6000823e3d601f19601f820116820180604052506020811015611ad457600080fd5b8101908080516040519392919084640100000000821115611af457600080fd5b83820191506020820185811115611b0a57600080fd5b8251866020820283011164010000000082111715611b2757600080fd5b8083526020830192505050908051906020019060200280838360005b83811015611b5e578082015181840152602081019050611b43565b50505050905001604052505050600081518110611b7757fe5b6020026020010151905060008373ffffffffffffffffffffffffffffffffffffffff166338ed17398e848c30603c42016040518663ffffffff1660e01b815260040180868152602001858152602001806020018473ffffffffffffffffffffffffffffffffffffffff168152602001838152602001828103825285818151815260200191508051906020019060200280838360005b83811015611c27578082015181840152602081019050611c0c565b505050509050019650505050505050600060405180830381600087803b158015611c5057600080fd5b505af1158015611c64573d6000803e3d6000fd5b505050506040513d6000823e3d601f19601f820116820180604052506020811015611c8e57600080fd5b8101908080516040519392919084640100000000821115611cae57600080fd5b83820191506020820185811115611cc457600080fd5b8251866020820283011164010000000082111715611ce157600080fd5b8083526020830192505050908051906020019060200280838360005b83811015611d18578082015181840152602081019050611cfd565b50505050905001604052505050600181518110611d3157fe5b60200260200101519050818111611db0576040517f08c379a00000000000000000000000000000000000000000000000000000000081526004018080602001828103825260038152602001807f653133000000000000000000000000000000000000000000000000000000000081525060200191505060405180910390fd5b60008690508073ffffffffffffffffffffffffffffffffffffffff1663a9059cbb33856040518363ffffffff1660e01b8152600401808373ffffffffffffffffffffffffffffffffffffffff16815260200182815260200192505050602060405180830381600087803b158015611e2657600080fd5b505af1158015611e3a573d6000803e3d6000fd5b505050506040513d6020811015611e5057600080fd5b8101908080519060200190929190505050508073ffffffffffffffffffffffffffffffffffffffff1663a9059cbb60008054906101000a900473ffffffffffffffffffffffffffffffffffffffff168585036040518363ffffffff1660e01b8152600401808373ffffffffffffffffffffffffffffffffffffffff16815260200182815260200192505050602060405180830381600087803b158015611ef557600080fd5b505af1158015611f09573d6000803e3d6000fd5b505050506040513d6020811015611f1f57600080fd5b8101908080519060200190929190505050505050505050505050505050505050505050505056fea2646970667358221220f4ae42436a3d3a4058384f64eb27f59d582bad0f195dddd4eb57d245040a217364736f6c63430007060033",
  "immutableReferences": {},
  "source": "// SPDX-License-Identifier: UNLICENSED\r\n\r\npragma solidity >=0.6.6 <0.8.0;\r\n\r\nimport './UniswapV2Library.sol';\r\nimport './interfaces/IERC20.sol';\r\nimport './interfaces/IUniswapV2Pair.sol';\r\nimport './interfaces/IUniswapV2Factory.sol';\r\nimport './interfaces/IUniswapV2Router02.sol';\r\n\r\n// @author Daniel Espendiller - https://github.com/Haehnchen/uniswap-arbitrage-flash-swap - espend.de\r\n//\r\n// e00: out of block\r\n// e01: no profit\r\n// e10: Requested pair is not available\r\n// e11: token0 / token1 does not exist\r\n// e12: src/target router empty\r\n// e13: pancakeCall not enough tokens for buyback\r\n// e14: pancakeCall msg.sender transfer failed\r\n// e15: pancakeCall owner transfer failed\r\n// e16:\r\n\r\ncontract Flashswap {\r\n\r\n    address public owner;\r\n\r\n    constructor() {\r\n        owner = msg.sender;\r\n    }\r\n\r\n    // https://github.com/Haehnchen/uniswap-arbitrage-flash-swap/blob/main/contracts/Flashswap.sol\r\n    function startArbitrage(\r\n        uint _maxBlockNumber,\r\n        address _tokenPay, // source currency when we will get; example BNB\r\n        address _tokenSwap, // swapped currency with the source currency; example BUSD\r\n        uint _amountTokenPay, // example: BNB => 10 * 1e18\r\n        address _sourceRouter,\r\n        address _targetRouter,\r\n        address _sourceFactory\r\n    ) external {\r\n        require(block.number <= _maxBlockNumber, 'e00');\r\n\r\n        // recheck for stopping and gas usage\r\n        (int profit, uint _tokenBorrowAmount) = check(_tokenPay, _tokenSwap, _amountTokenPay, _sourceRouter, _targetRouter);\r\n        // profit needs to be greater than 0, otherwise revert a transaction\r\n        require(profit > 0, 'e01');\r\n\r\n        // https://docs.uniswap.org/protocol/V2/reference/smart-contracts/factory#getpair\r\n        address pairAddress = IUniswapV2Factory(_sourceFactory).getPair(_tokenPay, _tokenSwap);\r\n        require(pairAddress != address(0), 'e10');\r\n\r\n        // scope for token{0,1}, avoids stack too deep errors\r\n        address token0 = IUniswapV2Pair(pairAddress).token0();\r\n        address token1 = IUniswapV2Pair(pairAddress).token1();\r\n\r\n        require(token0 != address(0) && token1 != address(0), 'e11');\r\n\r\n        // https://docs.uniswap.org/protocol/V2/guides/smart-contract-integration/using-flash-swaps\r\n        // _tokenPay can be zero because they should be sent from within a callback function\r\n        // that the pair triggers on the to address, to address is address(this) in thie contract\r\n        IUniswapV2Pair(pairAddress).swap(\r\n            _tokenSwap == token0 ? _tokenBorrowAmount : 0,\r\n            _tokenSwap == token1 ? _tokenBorrowAmount : 0,\r\n            address(this),\r\n            abi.encode(_sourceRouter, _targetRouter)\r\n        );\r\n    }\r\n\r\n    function check(\r\n        address _tokenPay, // source currency when we will get; example BNB\r\n        address _tokenSwap, // swapped currency with the source currency; example BUSD\r\n        uint _amountTokenPay, // example: BNB => 10 * 1e18\r\n        address _sourceRouter,\r\n        address _targetRouter\r\n    ) public view returns(int, uint) {\r\n        address[] memory path1 = new address[](2);\r\n        address[] memory path2 = new address[](2);\r\n\r\n        // path1 represents the forwarding exchange from source currency to swapped currency\r\n        path1[0] = path2[1] = _tokenPay;\r\n        // path2 represents the backward exchange from swapeed currency to source currency\r\n        path1[1] = path2[0] = _tokenSwap;\r\n\r\n        uint amountOut = IUniswapV2Router02(_sourceRouter).getAmountsOut(_amountTokenPay, path1)[1];\r\n        uint amountRepay = IUniswapV2Router02(_targetRouter).getAmountsOut(amountOut, path2)[1];\r\n\r\n        return (\r\n            int(amountRepay - _amountTokenPay), // our profit or loss; example output: BNB\r\n            amountOut // the amount we get from our input \"_amountTokenPay\"; example: BUSD amount\r\n        );\r\n    }\r\n\r\n    function execute(\r\n        address _sender,\r\n        uint _amount0,\r\n        uint _amount1,\r\n        bytes calldata _data\r\n    ) internal {\r\n        // obtain an amount of token that you exchanged, for example BUSD\r\n        uint amountToken = _amount0 == 0 ? _amount1 : _amount0;\r\n\r\n        IUniswapV2Pair iUniswapV2Pair = IUniswapV2Pair(msg.sender);\r\n        address token0 = iUniswapV2Pair.token0();\r\n        address token1 = iUniswapV2Pair.token1();\r\n\r\n        // require(token0 != address(0) && token1 != address(0), 'e16');\r\n\r\n        // if _amount0 is zero sell token1 for token0\r\n        // else sell token0 for token1 as a result\r\n        address[] memory path1 = new address[](2);\r\n        address[] memory path2 = new address[](2);\r\n\r\n        address forward = _amount0 == 0 ? token1 : token0;\r\n        address backward = _amount0 == 0 ? token0 : token1;\r\n\r\n        // path1 represents the forwarding exchange from source currency to swapped currency\r\n        // path1[0] = path2[1] = _amount0 == 0 ? token1 : token0;\r\n        path1[0] = path2[1] = forward;\r\n        // path2 represents the backward exchange from swapeed currency to source currency\r\n        // path1[1] = path2[0] = _amount0 == 0 ? token0 : token1;\r\n        path1[1] = path2[0] = backward;\r\n\r\n        (address sourceRouter, address targetRouter) = abi.decode(_data, (address, address));\r\n        require(sourceRouter != address(0) && targetRouter != address(0), 'e12');\r\n\r\n        // IERC20 token that we will sell for otherToken, for example BUSD\r\n        // IERC20 token = IERC20(_amount0 == 0 ? token1 : token0);\r\n        IERC20 token = IERC20(forward);\r\n        token.approve(targetRouter, amountToken);\r\n\r\n        // calculate the amount of token how much input token should be reimbursed, BNB -> BUSD\r\n        uint amountRequired = IUniswapV2Router02(sourceRouter).getAmountsIn(amountToken, path2)[0];\r\n\r\n        // swap token and obtain equivalent otherToken amountRequired as a result, BUSD -> BNB\r\n        uint amountReceived = IUniswapV2Router02(targetRouter).swapExactTokensForTokens(\r\n            amountToken,\r\n            amountRequired, // we already now what we need at least for payback; get less is a fail; slippage can be done via - ((amountRequired * 19) / 981) + 1,\r\n            path1,\r\n            address(this), \r\n            block.timestamp + 60\r\n        )[1];\r\n\r\n        // fail if we didn't get enough tokens\r\n        require(amountReceived > amountRequired, 'e13');\r\n\r\n        // IERC20 otherToken = IERC20(_amount0 == 0 ? token0 : token1);\r\n        IERC20 otherToken = IERC20(backward);\r\n\r\n        // callback should send the funds to the pair address back\r\n        otherToken.transfer(msg.sender, amountRequired); // send back borrow\r\n        // transfer the profit to the contract owner\r\n        otherToken.transfer(owner, amountReceived - amountRequired);\r\n    }\r\n\r\n    // c&p\r\n    // pancake, pancakeV2, apeswap, kebab\r\n    function pancakeCall(address _sender, uint256 _amount0, uint256 _amount1, bytes calldata _data) external {\r\n        execute(_sender, _amount0, _amount1, _data);\r\n    }\r\n\r\n    function waultSwapCall(address _sender, uint256 _amount0, uint256 _amount1, bytes calldata _data) external {\r\n        execute(_sender, _amount0, _amount1, _data);\r\n    }\r\n\r\n    function uniswapV2Call(address _sender, uint256 _amount0, uint256 _amount1, bytes calldata _data) external {\r\n        execute(_sender, _amount0, _amount1, _data);\r\n    }\r\n\r\n    // mdex\r\n    function swapV2Call(address _sender, uint256 _amount0, uint256 _amount1, bytes calldata _data) external {\r\n        execute(_sender, _amount0, _amount1, _data);\r\n    }\r\n\r\n    // pantherswap\r\n    function pantherCall(address _sender, uint256 _amount0, uint256 _amount1, bytes calldata _data) external {\r\n        execute(_sender, _amount0, _amount1, _data);\r\n    }\r\n\r\n    // jetswap\r\n    function jetswapCall(address _sender, uint256 _amount0, uint256 _amount1, bytes calldata _data) external {\r\n        execute(_sender, _amount0, _amount1, _data);\r\n    }\r\n\r\n    // cafeswap\r\n    function cafeCall(address _sender, uint256 _amount0, uint256 _amount1, bytes calldata _data) external {\r\n        execute(_sender, _amount0, _amount1, _data);\r\n    }\r\n\r\n    // @TODO: pending release\r\n    function BiswapCall(address _sender, uint256 _amount0, uint256 _amount1, bytes calldata _data) external {\r\n        execute(_sender, _amount0, _amount1, _data);\r\n    }\r\n\r\n    // @TODO: pending release\r\n    function wardenCall(address _sender, uint256 _amount0, uint256 _amount1, bytes calldata _data) external {\r\n        execute(_sender, _amount0, _amount1, _data);\r\n    }\r\n\r\n    receive() external payable {}\r\n}\r\n\r\n",
  "sourcePath": "E:\\flashloan\\AI-AutoTrade-Bot\\contracts\\Flashswap.sol",
  "compiler": {
    "name": "solc",
    "version": "0.7.6+commit.7338295f.Emscripten.clang"
  },
  "schemaVersion": "3.4.16",
  "updatedAt": "2024-02-05T07:53:30.891Z",
  "devdoc": {
    "kind": "dev",
    "methods": {},
    "version": 1
  },
  "userdoc": {
    "kind": "user",
    "methods": {},
    "version": 1
  }
}